{
  "contractName": "MyNFT",
  "abi": [
    {
      "inputs": [],
      "stateMutability": "nonpayable",
      "type": "constructor"
    },
    {
      "anonymous": false,
      "inputs": [
        {
          "indexed": true,
          "internalType": "address",
          "name": "owner",
          "type": "address"
        },
        {
          "indexed": true,
          "internalType": "address",
          "name": "approved",
          "type": "address"
        },
        {
          "indexed": true,
          "internalType": "uint256",
          "name": "tokenId",
          "type": "uint256"
        }
      ],
      "name": "Approval",
      "type": "event"
    },
    {
      "anonymous": false,
      "inputs": [
        {
          "indexed": true,
          "internalType": "address",
          "name": "owner",
          "type": "address"
        },
        {
          "indexed": true,
          "internalType": "address",
          "name": "operator",
          "type": "address"
        },
        {
          "indexed": false,
          "internalType": "bool",
          "name": "approved",
          "type": "bool"
        }
      ],
      "name": "ApprovalForAll",
      "type": "event"
    },
    {
      "anonymous": false,
      "inputs": [
        {
          "indexed": true,
          "internalType": "address",
          "name": "previousOwner",
          "type": "address"
        },
        {
          "indexed": true,
          "internalType": "address",
          "name": "newOwner",
          "type": "address"
        }
      ],
      "name": "OwnershipTransferred",
      "type": "event"
    },
    {
      "anonymous": false,
      "inputs": [
        {
          "indexed": true,
          "internalType": "address",
          "name": "from",
          "type": "address"
        },
        {
          "indexed": true,
          "internalType": "address",
          "name": "to",
          "type": "address"
        },
        {
          "indexed": true,
          "internalType": "uint256",
          "name": "tokenId",
          "type": "uint256"
        }
      ],
      "name": "Transfer",
      "type": "event"
    },
    {
      "inputs": [
        {
          "internalType": "address",
          "name": "to",
          "type": "address"
        },
        {
          "internalType": "uint256",
          "name": "tokenId",
          "type": "uint256"
        }
      ],
      "name": "approve",
      "outputs": [],
      "stateMutability": "nonpayable",
      "type": "function"
    },
    {
      "inputs": [
        {
          "internalType": "address",
          "name": "owner",
          "type": "address"
        }
      ],
      "name": "balanceOf",
      "outputs": [
        {
          "internalType": "uint256",
          "name": "",
          "type": "uint256"
        }
      ],
      "stateMutability": "view",
      "type": "function",
      "constant": true
    },
    {
      "inputs": [
        {
          "internalType": "uint256",
          "name": "tokenId",
          "type": "uint256"
        }
      ],
      "name": "getApproved",
      "outputs": [
        {
          "internalType": "address",
          "name": "",
          "type": "address"
        }
      ],
      "stateMutability": "view",
      "type": "function",
      "constant": true
    },
    {
      "inputs": [
        {
          "internalType": "address",
          "name": "owner",
          "type": "address"
        },
        {
          "internalType": "address",
          "name": "operator",
          "type": "address"
        }
      ],
      "name": "isApprovedForAll",
      "outputs": [
        {
          "internalType": "bool",
          "name": "",
          "type": "bool"
        }
      ],
      "stateMutability": "view",
      "type": "function",
      "constant": true
    },
    {
      "inputs": [],
      "name": "name",
      "outputs": [
        {
          "internalType": "string",
          "name": "",
          "type": "string"
        }
      ],
      "stateMutability": "view",
      "type": "function",
      "constant": true
    },
    {
      "inputs": [],
      "name": "owner",
      "outputs": [
        {
          "internalType": "address",
          "name": "",
          "type": "address"
        }
      ],
      "stateMutability": "view",
      "type": "function",
      "constant": true
    },
    {
      "inputs": [
        {
          "internalType": "uint256",
          "name": "tokenId",
          "type": "uint256"
        }
      ],
      "name": "ownerOf",
      "outputs": [
        {
          "internalType": "address",
          "name": "",
          "type": "address"
        }
      ],
      "stateMutability": "view",
      "type": "function",
      "constant": true
    },
    {
      "inputs": [],
      "name": "renounceOwnership",
      "outputs": [],
      "stateMutability": "nonpayable",
      "type": "function"
    },
    {
      "inputs": [
        {
          "internalType": "address",
          "name": "from",
          "type": "address"
        },
        {
          "internalType": "address",
          "name": "to",
          "type": "address"
        },
        {
          "internalType": "uint256",
          "name": "tokenId",
          "type": "uint256"
        }
      ],
      "name": "safeTransferFrom",
      "outputs": [],
      "stateMutability": "nonpayable",
      "type": "function"
    },
    {
      "inputs": [
        {
          "internalType": "address",
          "name": "from",
          "type": "address"
        },
        {
          "internalType": "address",
          "name": "to",
          "type": "address"
        },
        {
          "internalType": "uint256",
          "name": "tokenId",
          "type": "uint256"
        },
        {
          "internalType": "bytes",
          "name": "_data",
          "type": "bytes"
        }
      ],
      "name": "safeTransferFrom",
      "outputs": [],
      "stateMutability": "nonpayable",
      "type": "function"
    },
    {
      "inputs": [
        {
          "internalType": "address",
          "name": "operator",
          "type": "address"
        },
        {
          "internalType": "bool",
          "name": "approved",
          "type": "bool"
        }
      ],
      "name": "setApprovalForAll",
      "outputs": [],
      "stateMutability": "nonpayable",
      "type": "function"
    },
    {
      "inputs": [
        {
          "internalType": "bytes4",
          "name": "interfaceId",
          "type": "bytes4"
        }
      ],
      "name": "supportsInterface",
      "outputs": [
        {
          "internalType": "bool",
          "name": "",
          "type": "bool"
        }
      ],
      "stateMutability": "view",
      "type": "function",
      "constant": true
    },
    {
      "inputs": [],
      "name": "symbol",
      "outputs": [
        {
          "internalType": "string",
          "name": "",
          "type": "string"
        }
      ],
      "stateMutability": "view",
      "type": "function",
      "constant": true
    },
    {
      "inputs": [
        {
          "internalType": "uint256",
          "name": "tokenId",
          "type": "uint256"
        }
      ],
      "name": "tokenURI",
      "outputs": [
        {
          "internalType": "string",
          "name": "",
          "type": "string"
        }
      ],
      "stateMutability": "view",
      "type": "function",
      "constant": true
    },
    {
      "inputs": [
        {
          "internalType": "address",
          "name": "from",
          "type": "address"
        },
        {
          "internalType": "address",
          "name": "to",
          "type": "address"
        },
        {
          "internalType": "uint256",
          "name": "tokenId",
          "type": "uint256"
        }
      ],
      "name": "transferFrom",
      "outputs": [],
      "stateMutability": "nonpayable",
      "type": "function"
    },
    {
      "inputs": [
        {
          "internalType": "address",
          "name": "newOwner",
          "type": "address"
        }
      ],
      "name": "transferOwnership",
      "outputs": [],
      "stateMutability": "nonpayable",
      "type": "function"
    },
    {
      "inputs": [
        {
          "internalType": "address",
          "name": "recipient",
          "type": "address"
        },
        {
          "internalType": "string",
          "name": "tokenURI",
          "type": "string"
        },
        {
          "internalType": "uint256",
          "name": "tokenId",
          "type": "uint256"
        },
        {
          "internalType": "uint256",
          "name": "deadline",
          "type": "uint256"
        },
        {
          "internalType": "uint8",
          "name": "v",
          "type": "uint8"
        },
        {
          "internalType": "bytes32",
          "name": "r",
          "type": "bytes32"
        },
        {
          "internalType": "bytes32",
          "name": "s",
          "type": "bytes32"
        }
      ],
      "name": "mintNFT",
      "outputs": [],
      "stateMutability": "nonpayable",
      "type": "function"
    }
  ],
  "bytecode": "0x60806040523480156200001157600080fd5b506040518060400160405280600581526020017f4d794e46540000000000000000000000000000000000000000000000000000008152506040518060400160405280600381526020017f4e46540000000000000000000000000000000000000000000000000000000000815250816000908051906020019062000096929190620001a6565b508060019080519060200190620000af929190620001a6565b505050620000d2620000c6620000d860201b60201c565b620000e060201b60201c565b620002ba565b600033905090565b6000600760009054906101000a900473ffffffffffffffffffffffffffffffffffffffff16905081600760006101000a81548173ffffffffffffffffffffffffffffffffffffffff021916908373ffffffffffffffffffffffffffffffffffffffff1602179055508173ffffffffffffffffffffffffffffffffffffffff168173ffffffffffffffffffffffffffffffffffffffff167f8be0079c531659141344cd1fd0a4f28419497f9722a3daafe3b4186f6b6457e060405160405180910390a35050565b828054620001b49062000285565b90600052602060002090601f016020900481019282620001d8576000855562000224565b82601f10620001f357805160ff191683800117855562000224565b8280016001018555821562000224579182015b828111156200022357825182559160200191906001019062000206565b5b50905062000233919062000237565b5090565b5b808211156200025257600081600090555060010162000238565b5090565b7f4e487b7100000000000000000000000000000000000000000000000000000000600052602260045260246000fd5b600060028204905060018216806200029e57607f821691505b602082108103620002b457620002b362000256565b5b50919050565b6135d680620002ca6000396000f3fe608060405234801561001057600080fd5b506004361061010b5760003560e01c8063715018a6116100a2578063b88d4fde11610071578063b88d4fde146102a4578063c73e39f3146102c0578063c87b56dd146102dc578063e985e9c51461030c578063f2fde38b1461033c5761010b565b8063715018a6146102425780638da5cb5b1461024c57806395d89b411461026a578063a22cb465146102885761010b565b806323b872dd116100de57806323b872dd146101aa57806342842e0e146101c65780636352211e146101e257806370a08231146102125761010b565b806301ffc9a71461011057806306fdde0314610140578063081812fc1461015e578063095ea7b31461018e575b600080fd5b61012a60048036038101906101259190611ea4565b610358565b6040516101379190611eec565b60405180910390f35b61014861043a565b6040516101559190611fa0565b60405180910390f35b61017860048036038101906101739190611ff8565b6104cc565b6040516101859190612066565b60405180910390f35b6101a860048036038101906101a391906120ad565b610551565b005b6101c460048036038101906101bf91906120ed565b610668565b005b6101e060048036038101906101db91906120ed565b6106c8565b005b6101fc60048036038101906101f79190611ff8565b6106e8565b6040516102099190612066565b60405180910390f35b61022c60048036038101906102279190612140565b610799565b604051610239919061217c565b60405180910390f35b61024a610850565b005b6102546108d8565b6040516102619190612066565b60405180910390f35b610272610902565b60405161027f9190611fa0565b60405180910390f35b6102a2600480360381019061029d91906121c3565b610994565b005b6102be60048036038101906102b99190612338565b6109aa565b005b6102da60048036038101906102d591906124cb565b610a0c565b005b6102f660048036038101906102f19190611ff8565b610d31565b6040516103039190611fa0565b60405180910390f35b61032660048036038101906103219190612589565b610e82565b6040516103339190611eec565b60405180910390f35b61035660048036038101906103519190612140565b610f16565b005b60007f80ac58cd000000000000000000000000000000000000000000000000000000007bffffffffffffffffffffffffffffffffffffffffffffffffffffffff1916827bffffffffffffffffffffffffffffffffffffffffffffffffffffffff1916148061042357507f5b5e139f000000000000000000000000000000000000000000000000000000007bffffffffffffffffffffffffffffffffffffffffffffffffffffffff1916827bffffffffffffffffffffffffffffffffffffffffffffffffffffffff1916145b8061043357506104328261100d565b5b9050919050565b606060008054610449906125f8565b80601f0160208091040260200160405190810160405280929190818152602001828054610475906125f8565b80156104c25780601f10610497576101008083540402835291602001916104c2565b820191906000526020600020905b8154815290600101906020018083116104a557829003601f168201915b5050505050905090565b60006104d782611077565b610516576040517f08c379a000000000000000000000000000000000000000000000000000000000815260040161050d9061269b565b60405180910390fd5b6004600083815260200190815260200160002060009054906101000a900473ffffffffffffffffffffffffffffffffffffffff169050919050565b600061055c826106e8565b90508073ffffffffffffffffffffffffffffffffffffffff168373ffffffffffffffffffffffffffffffffffffffff16036105cc576040517f08c379a00000000000000000000000000000000000000000000000000000000081526004016105c39061272d565b60405180910390fd5b8073ffffffffffffffffffffffffffffffffffffffff166105eb6110e3565b73ffffffffffffffffffffffffffffffffffffffff16148061061a5750610619816106146110e3565b610e82565b5b610659576040517f08c379a0000000000000000000000000000000000000000000000000000000008152600401610650906127bf565b60405180910390fd5b61066383836110eb565b505050565b6106796106736110e3565b826111a4565b6106b8576040517f08c379a00000000000000000000000000000000000000000000000000000000081526004016106af90612851565b60405180910390fd5b6106c3838383611282565b505050565b6106e3838383604051806020016040528060008152506109aa565b505050565b6000806002600084815260200190815260200160002060009054906101000a900473ffffffffffffffffffffffffffffffffffffffff169050600073ffffffffffffffffffffffffffffffffffffffff168173ffffffffffffffffffffffffffffffffffffffff1603610790576040517f08c379a0000000000000000000000000000000000000000000000000000000008152600401610787906128e3565b60405180910390fd5b80915050919050565b60008073ffffffffffffffffffffffffffffffffffffffff168273ffffffffffffffffffffffffffffffffffffffff1603610809576040517f08c379a000000000000000000000000000000000000000000000000000000000815260040161080090612975565b60405180910390fd5b600360008373ffffffffffffffffffffffffffffffffffffffff1673ffffffffffffffffffffffffffffffffffffffff168152602001908152602001600020549050919050565b6108586110e3565b73ffffffffffffffffffffffffffffffffffffffff166108766108d8565b73ffffffffffffffffffffffffffffffffffffffff16146108cc576040517f08c379a00000000000000000000000000000000000000000000000000000000081526004016108c3906129e1565b60405180910390fd5b6108d660006114e8565b565b6000600760009054906101000a900473ffffffffffffffffffffffffffffffffffffffff16905090565b606060018054610911906125f8565b80601f016020809104026020016040519081016040528092919081815260200182805461093d906125f8565b801561098a5780601f1061095f5761010080835404028352916020019161098a565b820191906000526020600020905b81548152906001019060200180831161096d57829003601f168201915b5050505050905090565b6109a661099f6110e3565b83836115ae565b5050565b6109bb6109b56110e3565b836111a4565b6109fa576040517f08c379a00000000000000000000000000000000000000000000000000000000081526004016109f190612851565b60405180910390fd5b610a068484848461171a565b50505050565b834210610a4e576040517f08c379a0000000000000000000000000000000000000000000000000000000008152600401610a4590612a4d565b60405180910390fd5b6000610539905060007f8b73c3c69bb8fe3d512ecc4cf759cc79239f7b179b0ffacaa9a75d522b39400f6040518060400160405280600881526020017f446573692d4e4654000000000000000000000000000000000000000000000000815250805190602001206040518060400160405280600581526020017f302e302e31000000000000000000000000000000000000000000000000000000815250805190602001208430604051602001610b08959493929190612a7c565b60405160208183030381529060405280519060200120905060007f164500e35995d6e17e31f7be8f4acc9239a4a0f147e3bd45918fb34ad86d0dd28a8a805190602001208a8a604051602001610b62959493929190612acf565b60405160208183030381529060405280519060200120905060008282604051602001610b8f929190612b9a565b604051602081830303815290604052805190602001209050600060018289898960405160008152602001604052604051610bcc9493929190612be0565b6020604051602081039080840390855afa158015610bee573d6000803e3d6000fd5b5050506020604051035190503073ffffffffffffffffffffffffffffffffffffffff16638da5cb5b6040518163ffffffff1660e01b8152600401602060405180830381865afa158015610c45573d6000803e3d6000fd5b505050506040513d601f19601f82011682018060405250810190610c699190612c3a565b73ffffffffffffffffffffffffffffffffffffffff168173ffffffffffffffffffffffffffffffffffffffff1614610cd6576040517f08c379a0000000000000000000000000000000000000000000000000000000008152600401610ccd90612cb3565b60405180910390fd5b600073ffffffffffffffffffffffffffffffffffffffff168173ffffffffffffffffffffffffffffffffffffffff1603610d0f57600080fd5b610d198c8b611776565b610d238a8c61194f565b505050505050505050505050565b6060610d3c82611077565b610d7b576040517f08c379a0000000000000000000000000000000000000000000000000000000008152600401610d7290612d45565b60405180910390fd5b6000600660008481526020019081526020016000208054610d9b906125f8565b80601f0160208091040260200160405190810160405280929190818152602001828054610dc7906125f8565b8015610e145780601f10610de957610100808354040283529160200191610e14565b820191906000526020600020905b815481529060010190602001808311610df757829003601f168201915b505050505090506000610e256119c3565b90506000815103610e3a578192505050610e7d565b600082511115610e6f578082604051602001610e57929190612d96565b60405160208183030381529060405292505050610e7d565b610e78846119da565b925050505b919050565b6000600560008473ffffffffffffffffffffffffffffffffffffffff1673ffffffffffffffffffffffffffffffffffffffff16815260200190815260200160002060008373ffffffffffffffffffffffffffffffffffffffff1673ffffffffffffffffffffffffffffffffffffffff16815260200190815260200160002060009054906101000a900460ff16905092915050565b610f1e6110e3565b73ffffffffffffffffffffffffffffffffffffffff16610f3c6108d8565b73ffffffffffffffffffffffffffffffffffffffff1614610f92576040517f08c379a0000000000000000000000000000000000000000000000000000000008152600401610f89906129e1565b60405180910390fd5b600073ffffffffffffffffffffffffffffffffffffffff168173ffffffffffffffffffffffffffffffffffffffff1603611001576040517f08c379a0000000000000000000000000000000000000000000000000000000008152600401610ff890612e2c565b60405180910390fd5b61100a816114e8565b50565b60007f01ffc9a7000000000000000000000000000000000000000000000000000000007bffffffffffffffffffffffffffffffffffffffffffffffffffffffff1916827bffffffffffffffffffffffffffffffffffffffffffffffffffffffff1916149050919050565b60008073ffffffffffffffffffffffffffffffffffffffff166002600084815260200190815260200160002060009054906101000a900473ffffffffffffffffffffffffffffffffffffffff1673ffffffffffffffffffffffffffffffffffffffff1614159050919050565b600033905090565b816004600083815260200190815260200160002060006101000a81548173ffffffffffffffffffffffffffffffffffffffff021916908373ffffffffffffffffffffffffffffffffffffffff160217905550808273ffffffffffffffffffffffffffffffffffffffff1661115e836106e8565b73ffffffffffffffffffffffffffffffffffffffff167f8c5be1e5ebec7d5bd14f71427d1e84f3dd0314c0f7b2291e5b200ac8c7c3b92560405160405180910390a45050565b60006111af82611077565b6111ee576040517f08c379a00000000000000000000000000000000000000000000000000000000081526004016111e590612ebe565b60405180910390fd5b60006111f9836106e8565b90508073ffffffffffffffffffffffffffffffffffffffff168473ffffffffffffffffffffffffffffffffffffffff16148061126857508373ffffffffffffffffffffffffffffffffffffffff16611250846104cc565b73ffffffffffffffffffffffffffffffffffffffff16145b8061127957506112788185610e82565b5b91505092915050565b8273ffffffffffffffffffffffffffffffffffffffff166112a2826106e8565b73ffffffffffffffffffffffffffffffffffffffff16146112f8576040517f08c379a00000000000000000000000000000000000000000000000000000000081526004016112ef90612f50565b60405180910390fd5b600073ffffffffffffffffffffffffffffffffffffffff168273ffffffffffffffffffffffffffffffffffffffff1603611367576040517f08c379a000000000000000000000000000000000000000000000000000000000815260040161135e90612fe2565b60405180910390fd5b611372838383611a81565b61137d6000826110eb565b6001600360008573ffffffffffffffffffffffffffffffffffffffff1673ffffffffffffffffffffffffffffffffffffffff16815260200190815260200160002060008282546113cd9190613031565b925050819055506001600360008473ffffffffffffffffffffffffffffffffffffffff1673ffffffffffffffffffffffffffffffffffffffff16815260200190815260200160002060008282546114249190613065565b92505081905550816002600083815260200190815260200160002060006101000a81548173ffffffffffffffffffffffffffffffffffffffff021916908373ffffffffffffffffffffffffffffffffffffffff160217905550808273ffffffffffffffffffffffffffffffffffffffff168473ffffffffffffffffffffffffffffffffffffffff167fddf252ad1be2c89b69c2b068fc378daa952ba7f163c4a11628f55a4df523b3ef60405160405180910390a46114e3838383611a86565b505050565b6000600760009054906101000a900473ffffffffffffffffffffffffffffffffffffffff16905081600760006101000a81548173ffffffffffffffffffffffffffffffffffffffff021916908373ffffffffffffffffffffffffffffffffffffffff1602179055508173ffffffffffffffffffffffffffffffffffffffff168173ffffffffffffffffffffffffffffffffffffffff167f8be0079c531659141344cd1fd0a4f28419497f9722a3daafe3b4186f6b6457e060405160405180910390a35050565b8173ffffffffffffffffffffffffffffffffffffffff168373ffffffffffffffffffffffffffffffffffffffff160361161c576040517f08c379a000000000000000000000000000000000000000000000000000000000815260040161161390613107565b60405180910390fd5b80600560008573ffffffffffffffffffffffffffffffffffffffff1673ffffffffffffffffffffffffffffffffffffffff16815260200190815260200160002060008473ffffffffffffffffffffffffffffffffffffffff1673ffffffffffffffffffffffffffffffffffffffff16815260200190815260200160002060006101000a81548160ff0219169083151502179055508173ffffffffffffffffffffffffffffffffffffffff168373ffffffffffffffffffffffffffffffffffffffff167f17307eab39ab6107e8899845ad3d59bd9653f200f220920489ca2b5937696c318360405161170d9190611eec565b60405180910390a3505050565b611725848484611282565b61173184848484611a8b565b611770576040517f08c379a000000000000000000000000000000000000000000000000000000000815260040161176790613199565b60405180910390fd5b50505050565b600073ffffffffffffffffffffffffffffffffffffffff168273ffffffffffffffffffffffffffffffffffffffff16036117e5576040517f08c379a00000000000000000000000000000000000000000000000000000000081526004016117dc90613205565b60405180910390fd5b6117ee81611077565b1561182e576040517f08c379a000000000000000000000000000000000000000000000000000000000815260040161182590613271565b60405180910390fd5b61183a60008383611a81565b6001600360008473ffffffffffffffffffffffffffffffffffffffff1673ffffffffffffffffffffffffffffffffffffffff168152602001908152602001600020600082825461188a9190613065565b92505081905550816002600083815260200190815260200160002060006101000a81548173ffffffffffffffffffffffffffffffffffffffff021916908373ffffffffffffffffffffffffffffffffffffffff160217905550808273ffffffffffffffffffffffffffffffffffffffff16600073ffffffffffffffffffffffffffffffffffffffff167fddf252ad1be2c89b69c2b068fc378daa952ba7f163c4a11628f55a4df523b3ef60405160405180910390a461194b60008383611a86565b5050565b61195882611077565b611997576040517f08c379a000000000000000000000000000000000000000000000000000000000815260040161198e90613303565b60405180910390fd5b806006600084815260200190815260200160002090805190602001906119be929190611d95565b505050565b606060405180602001604052806000815250905090565b60606119e582611077565b611a24576040517f08c379a0000000000000000000000000000000000000000000000000000000008152600401611a1b90613395565b60405180910390fd5b6000611a2e6119c3565b90506000815111611a4e5760405180602001604052806000815250611a79565b80611a5884611c12565b604051602001611a69929190612d96565b6040516020818303038152906040525b915050919050565b505050565b505050565b6000611aac8473ffffffffffffffffffffffffffffffffffffffff16611d72565b15611c05578373ffffffffffffffffffffffffffffffffffffffff1663150b7a02611ad56110e3565b8786866040518563ffffffff1660e01b8152600401611af7949392919061340a565b6020604051808303816000875af1925050508015611b3357506040513d601f19601f82011682018060405250810190611b30919061346b565b60015b611bb5573d8060008114611b63576040519150601f19603f3d011682016040523d82523d6000602084013e611b68565b606091505b506000815103611bad576040517f08c379a0000000000000000000000000000000000000000000000000000000008152600401611ba490613199565b60405180910390fd5b805181602001fd5b63150b7a0260e01b7bffffffffffffffffffffffffffffffffffffffffffffffffffffffff1916817bffffffffffffffffffffffffffffffffffffffffffffffffffffffff191614915050611c0a565b600190505b949350505050565b606060008203611c59576040518060400160405280600181526020017f30000000000000000000000000000000000000000000000000000000000000008152509050611d6d565b600082905060005b60008214611c8b578080611c7490613498565b915050600a82611c84919061350f565b9150611c61565b60008167ffffffffffffffff811115611ca757611ca661220d565b5b6040519080825280601f01601f191660200182016040528015611cd95781602001600182028036833780820191505090505b5090505b60008514611d6657600182611cf29190613031565b9150600a85611d019190613540565b6030611d0d9190613065565b60f81b818381518110611d2357611d22613571565b5b60200101907effffffffffffffffffffffffffffffffffffffffffffffffffffffffffffff1916908160001a905350600a85611d5f919061350f565b9450611cdd565b8093505050505b919050565b6000808273ffffffffffffffffffffffffffffffffffffffff163b119050919050565b828054611da1906125f8565b90600052602060002090601f016020900481019282611dc35760008555611e0a565b82601f10611ddc57805160ff1916838001178555611e0a565b82800160010185558215611e0a579182015b82811115611e09578251825591602001919060010190611dee565b5b509050611e179190611e1b565b5090565b5b80821115611e34576000816000905550600101611e1c565b5090565b6000604051905090565b600080fd5b600080fd5b60007fffffffff0000000000000000000000000000000000000000000000000000000082169050919050565b611e8181611e4c565b8114611e8c57600080fd5b50565b600081359050611e9e81611e78565b92915050565b600060208284031215611eba57611eb9611e42565b5b6000611ec884828501611e8f565b91505092915050565b60008115159050919050565b611ee681611ed1565b82525050565b6000602082019050611f016000830184611edd565b92915050565b600081519050919050565b600082825260208201905092915050565b60005b83811015611f41578082015181840152602081019050611f26565b83811115611f50576000848401525b50505050565b6000601f19601f8301169050919050565b6000611f7282611f07565b611f7c8185611f12565b9350611f8c818560208601611f23565b611f9581611f56565b840191505092915050565b60006020820190508181036000830152611fba8184611f67565b905092915050565b6000819050919050565b611fd581611fc2565b8114611fe057600080fd5b50565b600081359050611ff281611fcc565b92915050565b60006020828403121561200e5761200d611e42565b5b600061201c84828501611fe3565b91505092915050565b600073ffffffffffffffffffffffffffffffffffffffff82169050919050565b600061205082612025565b9050919050565b61206081612045565b82525050565b600060208201905061207b6000830184612057565b92915050565b61208a81612045565b811461209557600080fd5b50565b6000813590506120a781612081565b92915050565b600080604083850312156120c4576120c3611e42565b5b60006120d285828601612098565b92505060206120e385828601611fe3565b9150509250929050565b60008060006060848603121561210657612105611e42565b5b600061211486828701612098565b935050602061212586828701612098565b925050604061213686828701611fe3565b9150509250925092565b60006020828403121561215657612155611e42565b5b600061216484828501612098565b91505092915050565b61217681611fc2565b82525050565b6000602082019050612191600083018461216d565b92915050565b6121a081611ed1565b81146121ab57600080fd5b50565b6000813590506121bd81612197565b92915050565b600080604083850312156121da576121d9611e42565b5b60006121e885828601612098565b92505060206121f9858286016121ae565b9150509250929050565b600080fd5b600080fd5b7f4e487b7100000000000000000000000000000000000000000000000000000000600052604160045260246000fd5b61224582611f56565b810181811067ffffffffffffffff821117156122645761226361220d565b5b80604052505050565b6000612277611e38565b9050612283828261223c565b919050565b600067ffffffffffffffff8211156122a3576122a261220d565b5b6122ac82611f56565b9050602081019050919050565b82818337600083830152505050565b60006122db6122d684612288565b61226d565b9050828152602081018484840111156122f7576122f6612208565b5b6123028482856122b9565b509392505050565b600082601f83011261231f5761231e612203565b5b813561232f8482602086016122c8565b91505092915050565b6000806000806080858703121561235257612351611e42565b5b600061236087828801612098565b945050602061237187828801612098565b935050604061238287828801611fe3565b925050606085013567ffffffffffffffff8111156123a3576123a2611e47565b5b6123af8782880161230a565b91505092959194509250565b600067ffffffffffffffff8211156123d6576123d561220d565b5b6123df82611f56565b9050602081019050919050565b60006123ff6123fa846123bb565b61226d565b90508281526020810184848401111561241b5761241a612208565b5b6124268482856122b9565b509392505050565b600082601f83011261244357612442612203565b5b81356124538482602086016123ec565b91505092915050565b600060ff82169050919050565b6124728161245c565b811461247d57600080fd5b50565b60008135905061248f81612469565b92915050565b6000819050919050565b6124a881612495565b81146124b357600080fd5b50565b6000813590506124c58161249f565b92915050565b600080600080600080600060e0888a0312156124ea576124e9611e42565b5b60006124f88a828b01612098565b975050602088013567ffffffffffffffff81111561251957612518611e47565b5b6125258a828b0161242e565b96505060406125368a828b01611fe3565b95505060606125478a828b01611fe3565b94505060806125588a828b01612480565b93505060a06125698a828b016124b6565b92505060c061257a8a828b016124b6565b91505092959891949750929550565b600080604083850312156125a05761259f611e42565b5b60006125ae85828601612098565b92505060206125bf85828601612098565b9150509250929050565b7f4e487b7100000000000000000000000000000000000000000000000000000000600052602260045260246000fd5b6000600282049050600182168061261057607f821691505b602082108103612623576126226125c9565b5b50919050565b7f4552433732313a20617070726f76656420717565727920666f72206e6f6e657860008201527f697374656e7420746f6b656e0000000000000000000000000000000000000000602082015250565b6000612685602c83611f12565b915061269082612629565b604082019050919050565b600060208201905081810360008301526126b481612678565b9050919050565b7f4552433732313a20617070726f76616c20746f2063757272656e74206f776e6560008201527f7200000000000000000000000000000000000000000000000000000000000000602082015250565b6000612717602183611f12565b9150612722826126bb565b604082019050919050565b600060208201905081810360008301526127468161270a565b9050919050565b7f4552433732313a20617070726f76652063616c6c6572206973206e6f74206f7760008201527f6e6572206e6f7220617070726f76656420666f7220616c6c0000000000000000602082015250565b60006127a9603883611f12565b91506127b48261274d565b604082019050919050565b600060208201905081810360008301526127d88161279c565b9050919050565b7f4552433732313a207472616e736665722063616c6c6572206973206e6f74206f60008201527f776e6572206e6f7220617070726f766564000000000000000000000000000000602082015250565b600061283b603183611f12565b9150612846826127df565b604082019050919050565b6000602082019050818103600083015261286a8161282e565b9050919050565b7f4552433732313a206f776e657220717565727920666f72206e6f6e657869737460008201527f656e7420746f6b656e0000000000000000000000000000000000000000000000602082015250565b60006128cd602983611f12565b91506128d882612871565b604082019050919050565b600060208201905081810360008301526128fc816128c0565b9050919050565b7f4552433732313a2062616c616e636520717565727920666f7220746865207a6560008201527f726f206164647265737300000000000000000000000000000000000000000000602082015250565b600061295f602a83611f12565b915061296a82612903565b604082019050919050565b6000602082019050818103600083015261298e81612952565b9050919050565b7f4f776e61626c653a2063616c6c6572206973206e6f7420746865206f776e6572600082015250565b60006129cb602083611f12565b91506129d682612995565b602082019050919050565b600060208201905081810360008301526129fa816129be565b9050919050565b7f5369676e6564205472616e73616374696f6e2045787069726564000000000000600082015250565b6000612a37601a83611f12565b9150612a4282612a01565b602082019050919050565b60006020820190508181036000830152612a6681612a2a565b9050919050565b612a7681612495565b82525050565b600060a082019050612a916000830188612a6d565b612a9e6020830187612a6d565b612aab6040830186612a6d565b612ab8606083018561216d565b612ac56080830184612057565b9695505050505050565b600060a082019050612ae46000830188612a6d565b612af16020830187612057565b612afe6040830186612a6d565b612b0b606083018561216d565b612b18608083018461216d565b9695505050505050565b600081905092915050565b7f1901000000000000000000000000000000000000000000000000000000000000600082015250565b6000612b63600283612b22565b9150612b6e82612b2d565b600282019050919050565b6000819050919050565b612b94612b8f82612495565b612b79565b82525050565b6000612ba582612b56565b9150612bb18285612b83565b602082019150612bc18284612b83565b6020820191508190509392505050565b612bda8161245c565b82525050565b6000608082019050612bf56000830187612a6d565b612c026020830186612bd1565b612c0f6040830185612a6d565b612c1c6060830184612a6d565b95945050505050565b600081519050612c3481612081565b92915050565b600060208284031215612c5057612c4f611e42565b5b6000612c5e84828501612c25565b91505092915050565b7f496e76616c6964205369676e6174757265000000000000000000000000000000600082015250565b6000612c9d601183611f12565b9150612ca882612c67565b602082019050919050565b60006020820190508181036000830152612ccc81612c90565b9050919050565b7f45524337323155524953746f726167653a2055524920717565727920666f722060008201527f6e6f6e6578697374656e7420746f6b656e000000000000000000000000000000602082015250565b6000612d2f603183611f12565b9150612d3a82612cd3565b604082019050919050565b60006020820190508181036000830152612d5e81612d22565b9050919050565b6000612d7082611f07565b612d7a8185612b22565b9350612d8a818560208601611f23565b80840191505092915050565b6000612da28285612d65565b9150612dae8284612d65565b91508190509392505050565b7f4f776e61626c653a206e6577206f776e657220697320746865207a65726f206160008201527f6464726573730000000000000000000000000000000000000000000000000000602082015250565b6000612e16602683611f12565b9150612e2182612dba565b604082019050919050565b60006020820190508181036000830152612e4581612e09565b9050919050565b7f4552433732313a206f70657261746f7220717565727920666f72206e6f6e657860008201527f697374656e7420746f6b656e0000000000000000000000000000000000000000602082015250565b6000612ea8602c83611f12565b9150612eb382612e4c565b604082019050919050565b60006020820190508181036000830152612ed781612e9b565b9050919050565b7f4552433732313a207472616e736665722066726f6d20696e636f72726563742060008201527f6f776e6572000000000000000000000000000000000000000000000000000000602082015250565b6000612f3a602583611f12565b9150612f4582612ede565b604082019050919050565b60006020820190508181036000830152612f6981612f2d565b9050919050565b7f4552433732313a207472616e7366657220746f20746865207a65726f2061646460008201527f7265737300000000000000000000000000000000000000000000000000000000602082015250565b6000612fcc602483611f12565b9150612fd782612f70565b604082019050919050565b60006020820190508181036000830152612ffb81612fbf565b9050919050565b7f4e487b7100000000000000000000000000000000000000000000000000000000600052601160045260246000fd5b600061303c82611fc2565b915061304783611fc2565b92508282101561305a57613059613002565b5b828203905092915050565b600061307082611fc2565b915061307b83611fc2565b9250827fffffffffffffffffffffffffffffffffffffffffffffffffffffffffffffffff038211156130b0576130af613002565b5b828201905092915050565b7f4552433732313a20617070726f766520746f2063616c6c657200000000000000600082015250565b60006130f1601983611f12565b91506130fc826130bb565b602082019050919050565b60006020820190508181036000830152613120816130e4565b9050919050565b7f4552433732313a207472616e7366657220746f206e6f6e20455243373231526560008201527f63656976657220696d706c656d656e7465720000000000000000000000000000602082015250565b6000613183603283611f12565b915061318e82613127565b604082019050919050565b600060208201905081810360008301526131b281613176565b9050919050565b7f4552433732313a206d696e7420746f20746865207a65726f2061646472657373600082015250565b60006131ef602083611f12565b91506131fa826131b9565b602082019050919050565b6000602082019050818103600083015261321e816131e2565b9050919050565b7f4552433732313a20746f6b656e20616c7265616479206d696e74656400000000600082015250565b600061325b601c83611f12565b915061326682613225565b602082019050919050565b6000602082019050818103600083015261328a8161324e565b9050919050565b7f45524337323155524953746f726167653a2055524920736574206f66206e6f6e60008201527f6578697374656e7420746f6b656e000000000000000000000000000000000000602082015250565b60006132ed602e83611f12565b91506132f882613291565b604082019050919050565b6000602082019050818103600083015261331c816132e0565b9050919050565b7f4552433732314d657461646174613a2055524920717565727920666f72206e6f60008201527f6e6578697374656e7420746f6b656e0000000000000000000000000000000000602082015250565b600061337f602f83611f12565b915061338a82613323565b604082019050919050565b600060208201905081810360008301526133ae81613372565b9050919050565b600081519050919050565b600082825260208201905092915050565b60006133dc826133b5565b6133e681856133c0565b93506133f6818560208601611f23565b6133ff81611f56565b840191505092915050565b600060808201905061341f6000830187612057565b61342c6020830186612057565b613439604083018561216d565b818103606083015261344b81846133d1565b905095945050505050565b60008151905061346581611e78565b92915050565b60006020828403121561348157613480611e42565b5b600061348f84828501613456565b91505092915050565b60006134a382611fc2565b91507fffffffffffffffffffffffffffffffffffffffffffffffffffffffffffffffff82036134d5576134d4613002565b5b600182019050919050565b7f4e487b7100000000000000000000000000000000000000000000000000000000600052601260045260246000fd5b600061351a82611fc2565b915061352583611fc2565b925082613535576135346134e0565b5b828204905092915050565b600061354b82611fc2565b915061355683611fc2565b925082613566576135656134e0565b5b828206905092915050565b7f4e487b7100000000000000000000000000000000000000000000000000000000600052603260045260246000fdfea2646970667358221220346ad598bfd0b1d74db26be8cab1b3a2c785a4b5a8f2e21e9e1c10809f4c164b64736f6c634300080d0033",
  "immutableReferences": {},
  "source": "// SPDX-License-Identifier: UNLICENSED\r\npragma solidity ^0.8.0;\r\n\r\nimport \"@openzeppelin/contracts/token/ERC721/ERC721.sol\";\r\nimport \"@openzeppelin/contracts/utils/Counters.sol\";\r\nimport \"@openzeppelin/contracts/access/Ownable.sol\";\r\nimport \"@openzeppelin/contracts/token/ERC721/extensions/ERC721URIStorage.sol\";\r\n\r\ncontract MyNFT is ERC721URIStorage, Ownable {\r\n    using Counters for Counters.Counter;\r\n    Counters.Counter private _tokenIds;\r\n\r\n    constructor() ERC721(\"MyNFT\", \"NFT\") {}\r\n\r\n    function mintNFT(\r\n        address recipient,\r\n        string memory tokenURI,\r\n        uint256 tokenId,\r\n        uint256 deadline,\r\n        uint8 v,\r\n        bytes32 r,\r\n        bytes32 s\r\n    ) public {\r\n        require(block.timestamp < deadline, \"Signed Transaction Expired\");\r\n        uint256 chainId = 1337;\r\n\r\n        bytes32 eip712DomainHash = keccak256(\r\n            abi.encode(\r\n                keccak256(\r\n                    \"EIP712Domain(string name,string version,uint256 chainId,address verifyingContract)\"\r\n                ),\r\n                keccak256(bytes(\"Desi-NFT\")),\r\n                keccak256(bytes(\"0.0.1\")),\r\n                chainId,\r\n                address(this)\r\n            )\r\n        );\r\n\r\n        bytes32 hashStruct = keccak256(\r\n            abi.encode(\r\n                keccak256(\r\n                    \"createNft(address recipient,string tokenURI,uint256 tokenId,uint256 deadline)\"\r\n                ),\r\n                recipient,\r\n                keccak256(bytes(tokenURI)),\r\n                tokenId,\r\n                deadline\r\n            )\r\n        );\r\n\r\n        bytes32 hash = keccak256(\r\n            abi.encodePacked(\"\\x19\\x01\", eip712DomainHash, hashStruct)\r\n        );\r\n\r\n        address signer = ecrecover(hash, v, r, s);\r\n\r\n        require(signer == this.owner(), \"Invalid Signature\");\r\n        require(signer != address(0));\r\n\r\n        _mint(recipient, tokenId);\r\n        _setTokenURI(tokenId, tokenURI);\r\n    }\r\n}\r\n",
  "sourcePath": "E:\\Github\\nft-market\\truffle\\contracts\\mintNFT.sol",
  "compiler": {
    "name": "solc",
    "version": "0.8.13+commit.abaa5c0e.Emscripten.clang"
  },
  "schemaVersion": "3.4.7",
  "updatedAt": "2022-05-08T07:29:40.214Z",
  "networkType": "ethereum",
  "devdoc": {
    "kind": "dev",
    "methods": {
      "approve(address,uint256)": {
        "details": "See {IERC721-approve}."
      },
      "balanceOf(address)": {
        "details": "See {IERC721-balanceOf}."
      },
      "getApproved(uint256)": {
        "details": "See {IERC721-getApproved}."
      },
      "isApprovedForAll(address,address)": {
        "details": "See {IERC721-isApprovedForAll}."
      },
      "name()": {
        "details": "See {IERC721Metadata-name}."
      },
      "owner()": {
        "details": "Returns the address of the current owner."
      },
      "ownerOf(uint256)": {
        "details": "See {IERC721-ownerOf}."
      },
      "renounceOwnership()": {
        "details": "Leaves the contract without owner. It will not be possible to call `onlyOwner` functions anymore. Can only be called by the current owner. NOTE: Renouncing ownership will leave the contract without an owner, thereby removing any functionality that is only available to the owner."
      },
      "safeTransferFrom(address,address,uint256)": {
        "details": "See {IERC721-safeTransferFrom}."
      },
      "safeTransferFrom(address,address,uint256,bytes)": {
        "details": "See {IERC721-safeTransferFrom}."
      },
      "setApprovalForAll(address,bool)": {
        "details": "See {IERC721-setApprovalForAll}."
      },
      "supportsInterface(bytes4)": {
        "details": "See {IERC165-supportsInterface}."
      },
      "symbol()": {
        "details": "See {IERC721Metadata-symbol}."
      },
      "tokenURI(uint256)": {
        "details": "See {IERC721Metadata-tokenURI}."
      },
      "transferFrom(address,address,uint256)": {
        "details": "See {IERC721-transferFrom}."
      },
      "transferOwnership(address)": {
        "details": "Transfers ownership of the contract to a new account (`newOwner`). Can only be called by the current owner."
      }
    },
    "version": 1
  },
  "userdoc": {
    "kind": "user",
    "methods": {},
    "version": 1
  }
}