{
  "contractName": "MyNFT",
  "abi": [
    {
      "inputs": [],
      "stateMutability": "nonpayable",
      "type": "constructor"
    },
    {
      "anonymous": false,
      "inputs": [
        {
          "indexed": true,
          "internalType": "address",
          "name": "owner",
          "type": "address"
        },
        {
          "indexed": true,
          "internalType": "address",
          "name": "approved",
          "type": "address"
        },
        {
          "indexed": true,
          "internalType": "uint256",
          "name": "tokenId",
          "type": "uint256"
        }
      ],
      "name": "Approval",
      "type": "event"
    },
    {
      "anonymous": false,
      "inputs": [
        {
          "indexed": true,
          "internalType": "address",
          "name": "owner",
          "type": "address"
        },
        {
          "indexed": true,
          "internalType": "address",
          "name": "operator",
          "type": "address"
        },
        {
          "indexed": false,
          "internalType": "bool",
          "name": "approved",
          "type": "bool"
        }
      ],
      "name": "ApprovalForAll",
      "type": "event"
    },
    {
      "anonymous": false,
      "inputs": [
        {
          "indexed": true,
          "internalType": "address",
          "name": "previousOwner",
          "type": "address"
        },
        {
          "indexed": true,
          "internalType": "address",
          "name": "newOwner",
          "type": "address"
        }
      ],
      "name": "OwnershipTransferred",
      "type": "event"
    },
    {
      "anonymous": false,
      "inputs": [
        {
          "indexed": true,
          "internalType": "address",
          "name": "from",
          "type": "address"
        },
        {
          "indexed": true,
          "internalType": "address",
          "name": "to",
          "type": "address"
        },
        {
          "indexed": true,
          "internalType": "uint256",
          "name": "tokenId",
          "type": "uint256"
        }
      ],
      "name": "Transfer",
      "type": "event"
    },
    {
      "inputs": [
        {
          "internalType": "address",
          "name": "to",
          "type": "address"
        },
        {
          "internalType": "uint256",
          "name": "tokenId",
          "type": "uint256"
        }
      ],
      "name": "approve",
      "outputs": [],
      "stateMutability": "nonpayable",
      "type": "function"
    },
    {
      "inputs": [
        {
          "internalType": "address",
          "name": "owner",
          "type": "address"
        }
      ],
      "name": "balanceOf",
      "outputs": [
        {
          "internalType": "uint256",
          "name": "",
          "type": "uint256"
        }
      ],
      "stateMutability": "view",
      "type": "function",
      "constant": true
    },
    {
      "inputs": [
        {
          "internalType": "uint256",
          "name": "tokenId",
          "type": "uint256"
        }
      ],
      "name": "getApproved",
      "outputs": [
        {
          "internalType": "address",
          "name": "",
          "type": "address"
        }
      ],
      "stateMutability": "view",
      "type": "function",
      "constant": true
    },
    {
      "inputs": [
        {
          "internalType": "address",
          "name": "owner",
          "type": "address"
        },
        {
          "internalType": "address",
          "name": "operator",
          "type": "address"
        }
      ],
      "name": "isApprovedForAll",
      "outputs": [
        {
          "internalType": "bool",
          "name": "",
          "type": "bool"
        }
      ],
      "stateMutability": "view",
      "type": "function",
      "constant": true
    },
    {
      "inputs": [],
      "name": "name",
      "outputs": [
        {
          "internalType": "string",
          "name": "",
          "type": "string"
        }
      ],
      "stateMutability": "view",
      "type": "function",
      "constant": true
    },
    {
      "inputs": [],
      "name": "owner",
      "outputs": [
        {
          "internalType": "address",
          "name": "",
          "type": "address"
        }
      ],
      "stateMutability": "view",
      "type": "function",
      "constant": true
    },
    {
      "inputs": [
        {
          "internalType": "uint256",
          "name": "tokenId",
          "type": "uint256"
        }
      ],
      "name": "ownerOf",
      "outputs": [
        {
          "internalType": "address",
          "name": "",
          "type": "address"
        }
      ],
      "stateMutability": "view",
      "type": "function",
      "constant": true
    },
    {
      "inputs": [],
      "name": "renounceOwnership",
      "outputs": [],
      "stateMutability": "nonpayable",
      "type": "function"
    },
    {
      "inputs": [
        {
          "internalType": "address",
          "name": "from",
          "type": "address"
        },
        {
          "internalType": "address",
          "name": "to",
          "type": "address"
        },
        {
          "internalType": "uint256",
          "name": "tokenId",
          "type": "uint256"
        }
      ],
      "name": "safeTransferFrom",
      "outputs": [],
      "stateMutability": "nonpayable",
      "type": "function"
    },
    {
      "inputs": [
        {
          "internalType": "address",
          "name": "from",
          "type": "address"
        },
        {
          "internalType": "address",
          "name": "to",
          "type": "address"
        },
        {
          "internalType": "uint256",
          "name": "tokenId",
          "type": "uint256"
        },
        {
          "internalType": "bytes",
          "name": "_data",
          "type": "bytes"
        }
      ],
      "name": "safeTransferFrom",
      "outputs": [],
      "stateMutability": "nonpayable",
      "type": "function"
    },
    {
      "inputs": [
        {
          "internalType": "address",
          "name": "operator",
          "type": "address"
        },
        {
          "internalType": "bool",
          "name": "approved",
          "type": "bool"
        }
      ],
      "name": "setApprovalForAll",
      "outputs": [],
      "stateMutability": "nonpayable",
      "type": "function"
    },
    {
      "inputs": [
        {
          "internalType": "bytes4",
          "name": "interfaceId",
          "type": "bytes4"
        }
      ],
      "name": "supportsInterface",
      "outputs": [
        {
          "internalType": "bool",
          "name": "",
          "type": "bool"
        }
      ],
      "stateMutability": "view",
      "type": "function",
      "constant": true
    },
    {
      "inputs": [],
      "name": "symbol",
      "outputs": [
        {
          "internalType": "string",
          "name": "",
          "type": "string"
        }
      ],
      "stateMutability": "view",
      "type": "function",
      "constant": true
    },
    {
      "inputs": [
        {
          "internalType": "uint256",
          "name": "tokenId",
          "type": "uint256"
        }
      ],
      "name": "tokenURI",
      "outputs": [
        {
          "internalType": "string",
          "name": "",
          "type": "string"
        }
      ],
      "stateMutability": "view",
      "type": "function",
      "constant": true
    },
    {
      "inputs": [
        {
          "internalType": "address",
          "name": "from",
          "type": "address"
        },
        {
          "internalType": "address",
          "name": "to",
          "type": "address"
        },
        {
          "internalType": "uint256",
          "name": "tokenId",
          "type": "uint256"
        }
      ],
      "name": "transferFrom",
      "outputs": [],
      "stateMutability": "nonpayable",
      "type": "function"
    },
    {
      "inputs": [
        {
          "internalType": "address",
          "name": "newOwner",
          "type": "address"
        }
      ],
      "name": "transferOwnership",
      "outputs": [],
      "stateMutability": "nonpayable",
      "type": "function"
    },
    {
      "inputs": [
        {
          "internalType": "address",
          "name": "recipient",
          "type": "address"
        },
        {
          "internalType": "string",
          "name": "tokenURI",
          "type": "string"
        },
        {
          "internalType": "uint256",
          "name": "tokenId",
          "type": "uint256"
        },
        {
          "internalType": "uint256",
          "name": "_deadline",
          "type": "uint256"
        },
        {
          "internalType": "uint8",
          "name": "v",
          "type": "uint8"
        },
        {
          "internalType": "bytes32",
          "name": "r",
          "type": "bytes32"
        },
        {
          "internalType": "bytes32",
          "name": "s",
          "type": "bytes32"
        }
      ],
      "name": "mintNFT",
      "outputs": [],
      "stateMutability": "nonpayable",
      "type": "function"
    }
  ],
  "bytecode": "0x60806040523480156200001157600080fd5b506040518060400160405280600581526020017f4d794e46540000000000000000000000000000000000000000000000000000008152506040518060400160405280600381526020017f4e46540000000000000000000000000000000000000000000000000000000000815250816000908051906020019062000096929190620001a6565b508060019080519060200190620000af929190620001a6565b505050620000d2620000c6620000d860201b60201c565b620000e060201b60201c565b620002ba565b600033905090565b6000600760009054906101000a900473ffffffffffffffffffffffffffffffffffffffff16905081600760006101000a81548173ffffffffffffffffffffffffffffffffffffffff021916908373ffffffffffffffffffffffffffffffffffffffff1602179055508173ffffffffffffffffffffffffffffffffffffffff168173ffffffffffffffffffffffffffffffffffffffff167f8be0079c531659141344cd1fd0a4f28419497f9722a3daafe3b4186f6b6457e060405160405180910390a35050565b828054620001b49062000285565b90600052602060002090601f016020900481019282620001d8576000855562000224565b82601f10620001f357805160ff191683800117855562000224565b8280016001018555821562000224579182015b828111156200022357825182559160200191906001019062000206565b5b50905062000233919062000237565b5090565b5b808211156200025257600081600090555060010162000238565b5090565b7f4e487b7100000000000000000000000000000000000000000000000000000000600052602260045260246000fd5b600060028204905060018216806200029e57607f821691505b602082108103620002b457620002b362000256565b5b50919050565b6135db80620002ca6000396000f3fe608060405234801561001057600080fd5b506004361061010b5760003560e01c8063715018a6116100a2578063b88d4fde11610071578063b88d4fde146102a4578063c73e39f3146102c0578063c87b56dd146102dc578063e985e9c51461030c578063f2fde38b1461033c5761010b565b8063715018a6146102425780638da5cb5b1461024c57806395d89b411461026a578063a22cb465146102885761010b565b806323b872dd116100de57806323b872dd146101aa57806342842e0e146101c65780636352211e146101e257806370a08231146102125761010b565b806301ffc9a71461011057806306fdde0314610140578063081812fc1461015e578063095ea7b31461018e575b600080fd5b61012a60048036038101906101259190611ea2565b610358565b6040516101379190611eea565b60405180910390f35b61014861043a565b6040516101559190611f9e565b60405180910390f35b61017860048036038101906101739190611ff6565b6104cc565b6040516101859190612064565b60405180910390f35b6101a860048036038101906101a391906120ab565b610551565b005b6101c460048036038101906101bf91906120eb565b610668565b005b6101e060048036038101906101db91906120eb565b6106c8565b005b6101fc60048036038101906101f79190611ff6565b6106e8565b6040516102099190612064565b60405180910390f35b61022c6004803603810190610227919061213e565b610799565b604051610239919061217a565b60405180910390f35b61024a610850565b005b6102546108d8565b6040516102619190612064565b60405180910390f35b610272610902565b60405161027f9190611f9e565b60405180910390f35b6102a2600480360381019061029d91906121c1565b610994565b005b6102be60048036038101906102b99190612336565b6109aa565b005b6102da60048036038101906102d591906124c9565b610a0c565b005b6102f660048036038101906102f19190611ff6565b610d2f565b6040516103039190611f9e565b60405180910390f35b61032660048036038101906103219190612587565b610e80565b6040516103339190611eea565b60405180910390f35b6103566004803603810190610351919061213e565b610f14565b005b60007f80ac58cd000000000000000000000000000000000000000000000000000000007bffffffffffffffffffffffffffffffffffffffffffffffffffffffff1916827bffffffffffffffffffffffffffffffffffffffffffffffffffffffff1916148061042357507f5b5e139f000000000000000000000000000000000000000000000000000000007bffffffffffffffffffffffffffffffffffffffffffffffffffffffff1916827bffffffffffffffffffffffffffffffffffffffffffffffffffffffff1916145b8061043357506104328261100b565b5b9050919050565b606060008054610449906125f6565b80601f0160208091040260200160405190810160405280929190818152602001828054610475906125f6565b80156104c25780601f10610497576101008083540402835291602001916104c2565b820191906000526020600020905b8154815290600101906020018083116104a557829003601f168201915b5050505050905090565b60006104d782611075565b610516576040517f08c379a000000000000000000000000000000000000000000000000000000000815260040161050d90612699565b60405180910390fd5b6004600083815260200190815260200160002060009054906101000a900473ffffffffffffffffffffffffffffffffffffffff169050919050565b600061055c826106e8565b90508073ffffffffffffffffffffffffffffffffffffffff168373ffffffffffffffffffffffffffffffffffffffff16036105cc576040517f08c379a00000000000000000000000000000000000000000000000000000000081526004016105c39061272b565b60405180910390fd5b8073ffffffffffffffffffffffffffffffffffffffff166105eb6110e1565b73ffffffffffffffffffffffffffffffffffffffff16148061061a5750610619816106146110e1565b610e80565b5b610659576040517f08c379a0000000000000000000000000000000000000000000000000000000008152600401610650906127bd565b60405180910390fd5b61066383836110e9565b505050565b6106796106736110e1565b826111a2565b6106b8576040517f08c379a00000000000000000000000000000000000000000000000000000000081526004016106af9061284f565b60405180910390fd5b6106c3838383611280565b505050565b6106e3838383604051806020016040528060008152506109aa565b505050565b6000806002600084815260200190815260200160002060009054906101000a900473ffffffffffffffffffffffffffffffffffffffff169050600073ffffffffffffffffffffffffffffffffffffffff168173ffffffffffffffffffffffffffffffffffffffff1603610790576040517f08c379a0000000000000000000000000000000000000000000000000000000008152600401610787906128e1565b60405180910390fd5b80915050919050565b60008073ffffffffffffffffffffffffffffffffffffffff168273ffffffffffffffffffffffffffffffffffffffff1603610809576040517f08c379a000000000000000000000000000000000000000000000000000000000815260040161080090612973565b60405180910390fd5b600360008373ffffffffffffffffffffffffffffffffffffffff1673ffffffffffffffffffffffffffffffffffffffff168152602001908152602001600020549050919050565b6108586110e1565b73ffffffffffffffffffffffffffffffffffffffff166108766108d8565b73ffffffffffffffffffffffffffffffffffffffff16146108cc576040517f08c379a00000000000000000000000000000000000000000000000000000000081526004016108c3906129df565b60405180910390fd5b6108d660006114e6565b565b6000600760009054906101000a900473ffffffffffffffffffffffffffffffffffffffff16905090565b606060018054610911906125f6565b80601f016020809104026020016040519081016040528092919081815260200182805461093d906125f6565b801561098a5780601f1061095f5761010080835404028352916020019161098a565b820191906000526020600020905b81548152906001019060200180831161096d57829003601f168201915b5050505050905090565b6109a661099f6110e1565b83836115ac565b5050565b6109bb6109b56110e1565b836111a2565b6109fa576040517f08c379a00000000000000000000000000000000000000000000000000000000081526004016109f19061284f565b60405180910390fd5b610a0684848484611718565b50505050565b834210610a4e576040517f08c379a0000000000000000000000000000000000000000000000000000000008152600401610a4590612a4b565b60405180910390fd5b600033905060006001905060007f3cb138da6d2d7fa0e45d63ba80d5c0902dc0f5c3cc8ce33bcfe31dc017a3a4126040518060400160405280600881526020017f446573692d4e4654000000000000000000000000000000000000000000000000815250805190602001206040518060400160405280600581526020017f302e302e31000000000000000000000000000000000000000000000000000000815250805190602001208430604051602001610b0c959493929190612a7a565b60405160208183030381529060405280519060200120905060007f2c812588e371e37c7d22d9a5a92b6cb9eaabd9ff1e294a10f5ea2c10262d9dc9848b8b8b604051602001610b5f959493929190612acd565b60405160208183030381529060405280519060200120905060008282604051602001610b8c929190612b9f565b60405160208183030381529060405280519060200120905060006001828a8a8a60405160008152602001604052604051610bc99493929190612be5565b6020604051602081039080840390855afa158015610beb573d6000803e3d6000fd5b5050506020604051035190503073ffffffffffffffffffffffffffffffffffffffff16638da5cb5b6040518163ffffffff1660e01b8152600401602060405180830381865afa158015610c42573d6000803e3d6000fd5b505050506040513d601f19601f82011682018060405250810190610c669190612c3f565b73ffffffffffffffffffffffffffffffffffffffff168173ffffffffffffffffffffffffffffffffffffffff1614610cd3576040517f08c379a0000000000000000000000000000000000000000000000000000000008152600401610cca90612cb8565b60405180910390fd5b600073ffffffffffffffffffffffffffffffffffffffff168173ffffffffffffffffffffffffffffffffffffffff1603610d0c57600080fd5b610d168d8c611774565b610d208b8d61194d565b50505050505050505050505050565b6060610d3a82611075565b610d79576040517f08c379a0000000000000000000000000000000000000000000000000000000008152600401610d7090612d4a565b60405180910390fd5b6000600660008481526020019081526020016000208054610d99906125f6565b80601f0160208091040260200160405190810160405280929190818152602001828054610dc5906125f6565b8015610e125780601f10610de757610100808354040283529160200191610e12565b820191906000526020600020905b815481529060010190602001808311610df557829003601f168201915b505050505090506000610e236119c1565b90506000815103610e38578192505050610e7b565b600082511115610e6d578082604051602001610e55929190612d9b565b60405160208183030381529060405292505050610e7b565b610e76846119d8565b925050505b919050565b6000600560008473ffffffffffffffffffffffffffffffffffffffff1673ffffffffffffffffffffffffffffffffffffffff16815260200190815260200160002060008373ffffffffffffffffffffffffffffffffffffffff1673ffffffffffffffffffffffffffffffffffffffff16815260200190815260200160002060009054906101000a900460ff16905092915050565b610f1c6110e1565b73ffffffffffffffffffffffffffffffffffffffff16610f3a6108d8565b73ffffffffffffffffffffffffffffffffffffffff1614610f90576040517f08c379a0000000000000000000000000000000000000000000000000000000008152600401610f87906129df565b60405180910390fd5b600073ffffffffffffffffffffffffffffffffffffffff168173ffffffffffffffffffffffffffffffffffffffff1603610fff576040517f08c379a0000000000000000000000000000000000000000000000000000000008152600401610ff690612e31565b60405180910390fd5b611008816114e6565b50565b60007f01ffc9a7000000000000000000000000000000000000000000000000000000007bffffffffffffffffffffffffffffffffffffffffffffffffffffffff1916827bffffffffffffffffffffffffffffffffffffffffffffffffffffffff1916149050919050565b60008073ffffffffffffffffffffffffffffffffffffffff166002600084815260200190815260200160002060009054906101000a900473ffffffffffffffffffffffffffffffffffffffff1673ffffffffffffffffffffffffffffffffffffffff1614159050919050565b600033905090565b816004600083815260200190815260200160002060006101000a81548173ffffffffffffffffffffffffffffffffffffffff021916908373ffffffffffffffffffffffffffffffffffffffff160217905550808273ffffffffffffffffffffffffffffffffffffffff1661115c836106e8565b73ffffffffffffffffffffffffffffffffffffffff167f8c5be1e5ebec7d5bd14f71427d1e84f3dd0314c0f7b2291e5b200ac8c7c3b92560405160405180910390a45050565b60006111ad82611075565b6111ec576040517f08c379a00000000000000000000000000000000000000000000000000000000081526004016111e390612ec3565b60405180910390fd5b60006111f7836106e8565b90508073ffffffffffffffffffffffffffffffffffffffff168473ffffffffffffffffffffffffffffffffffffffff16148061126657508373ffffffffffffffffffffffffffffffffffffffff1661124e846104cc565b73ffffffffffffffffffffffffffffffffffffffff16145b8061127757506112768185610e80565b5b91505092915050565b8273ffffffffffffffffffffffffffffffffffffffff166112a0826106e8565b73ffffffffffffffffffffffffffffffffffffffff16146112f6576040517f08c379a00000000000000000000000000000000000000000000000000000000081526004016112ed90612f55565b60405180910390fd5b600073ffffffffffffffffffffffffffffffffffffffff168273ffffffffffffffffffffffffffffffffffffffff1603611365576040517f08c379a000000000000000000000000000000000000000000000000000000000815260040161135c90612fe7565b60405180910390fd5b611370838383611a7f565b61137b6000826110e9565b6001600360008573ffffffffffffffffffffffffffffffffffffffff1673ffffffffffffffffffffffffffffffffffffffff16815260200190815260200160002060008282546113cb9190613036565b925050819055506001600360008473ffffffffffffffffffffffffffffffffffffffff1673ffffffffffffffffffffffffffffffffffffffff1681526020019081526020016000206000828254611422919061306a565b92505081905550816002600083815260200190815260200160002060006101000a81548173ffffffffffffffffffffffffffffffffffffffff021916908373ffffffffffffffffffffffffffffffffffffffff160217905550808273ffffffffffffffffffffffffffffffffffffffff168473ffffffffffffffffffffffffffffffffffffffff167fddf252ad1be2c89b69c2b068fc378daa952ba7f163c4a11628f55a4df523b3ef60405160405180910390a46114e1838383611a84565b505050565b6000600760009054906101000a900473ffffffffffffffffffffffffffffffffffffffff16905081600760006101000a81548173ffffffffffffffffffffffffffffffffffffffff021916908373ffffffffffffffffffffffffffffffffffffffff1602179055508173ffffffffffffffffffffffffffffffffffffffff168173ffffffffffffffffffffffffffffffffffffffff167f8be0079c531659141344cd1fd0a4f28419497f9722a3daafe3b4186f6b6457e060405160405180910390a35050565b8173ffffffffffffffffffffffffffffffffffffffff168373ffffffffffffffffffffffffffffffffffffffff160361161a576040517f08c379a00000000000000000000000000000000000000000000000000000000081526004016116119061310c565b60405180910390fd5b80600560008573ffffffffffffffffffffffffffffffffffffffff1673ffffffffffffffffffffffffffffffffffffffff16815260200190815260200160002060008473ffffffffffffffffffffffffffffffffffffffff1673ffffffffffffffffffffffffffffffffffffffff16815260200190815260200160002060006101000a81548160ff0219169083151502179055508173ffffffffffffffffffffffffffffffffffffffff168373ffffffffffffffffffffffffffffffffffffffff167f17307eab39ab6107e8899845ad3d59bd9653f200f220920489ca2b5937696c318360405161170b9190611eea565b60405180910390a3505050565b611723848484611280565b61172f84848484611a89565b61176e576040517f08c379a00000000000000000000000000000000000000000000000000000000081526004016117659061319e565b60405180910390fd5b50505050565b600073ffffffffffffffffffffffffffffffffffffffff168273ffffffffffffffffffffffffffffffffffffffff16036117e3576040517f08c379a00000000000000000000000000000000000000000000000000000000081526004016117da9061320a565b60405180910390fd5b6117ec81611075565b1561182c576040517f08c379a000000000000000000000000000000000000000000000000000000000815260040161182390613276565b60405180910390fd5b61183860008383611a7f565b6001600360008473ffffffffffffffffffffffffffffffffffffffff1673ffffffffffffffffffffffffffffffffffffffff1681526020019081526020016000206000828254611888919061306a565b92505081905550816002600083815260200190815260200160002060006101000a81548173ffffffffffffffffffffffffffffffffffffffff021916908373ffffffffffffffffffffffffffffffffffffffff160217905550808273ffffffffffffffffffffffffffffffffffffffff16600073ffffffffffffffffffffffffffffffffffffffff167fddf252ad1be2c89b69c2b068fc378daa952ba7f163c4a11628f55a4df523b3ef60405160405180910390a461194960008383611a84565b5050565b61195682611075565b611995576040517f08c379a000000000000000000000000000000000000000000000000000000000815260040161198c90613308565b60405180910390fd5b806006600084815260200190815260200160002090805190602001906119bc929190611d93565b505050565b606060405180602001604052806000815250905090565b60606119e382611075565b611a22576040517f08c379a0000000000000000000000000000000000000000000000000000000008152600401611a199061339a565b60405180910390fd5b6000611a2c6119c1565b90506000815111611a4c5760405180602001604052806000815250611a77565b80611a5684611c10565b604051602001611a67929190612d9b565b6040516020818303038152906040525b915050919050565b505050565b505050565b6000611aaa8473ffffffffffffffffffffffffffffffffffffffff16611d70565b15611c03578373ffffffffffffffffffffffffffffffffffffffff1663150b7a02611ad36110e1565b8786866040518563ffffffff1660e01b8152600401611af5949392919061340f565b6020604051808303816000875af1925050508015611b3157506040513d601f19601f82011682018060405250810190611b2e9190613470565b60015b611bb3573d8060008114611b61576040519150601f19603f3d011682016040523d82523d6000602084013e611b66565b606091505b506000815103611bab576040517f08c379a0000000000000000000000000000000000000000000000000000000008152600401611ba29061319e565b60405180910390fd5b805181602001fd5b63150b7a0260e01b7bffffffffffffffffffffffffffffffffffffffffffffffffffffffff1916817bffffffffffffffffffffffffffffffffffffffffffffffffffffffff191614915050611c08565b600190505b949350505050565b606060008203611c57576040518060400160405280600181526020017f30000000000000000000000000000000000000000000000000000000000000008152509050611d6b565b600082905060005b60008214611c89578080611c729061349d565b915050600a82611c829190613514565b9150611c5f565b60008167ffffffffffffffff811115611ca557611ca461220b565b5b6040519080825280601f01601f191660200182016040528015611cd75781602001600182028036833780820191505090505b5090505b60008514611d6457600182611cf09190613036565b9150600a85611cff9190613545565b6030611d0b919061306a565b60f81b818381518110611d2157611d20613576565b5b60200101907effffffffffffffffffffffffffffffffffffffffffffffffffffffffffffff1916908160001a905350600a85611d5d9190613514565b9450611cdb565b8093505050505b919050565b6000808273ffffffffffffffffffffffffffffffffffffffff163b119050919050565b828054611d9f906125f6565b90600052602060002090601f016020900481019282611dc15760008555611e08565b82601f10611dda57805160ff1916838001178555611e08565b82800160010185558215611e08579182015b82811115611e07578251825591602001919060010190611dec565b5b509050611e159190611e19565b5090565b5b80821115611e32576000816000905550600101611e1a565b5090565b6000604051905090565b600080fd5b600080fd5b60007fffffffff0000000000000000000000000000000000000000000000000000000082169050919050565b611e7f81611e4a565b8114611e8a57600080fd5b50565b600081359050611e9c81611e76565b92915050565b600060208284031215611eb857611eb7611e40565b5b6000611ec684828501611e8d565b91505092915050565b60008115159050919050565b611ee481611ecf565b82525050565b6000602082019050611eff6000830184611edb565b92915050565b600081519050919050565b600082825260208201905092915050565b60005b83811015611f3f578082015181840152602081019050611f24565b83811115611f4e576000848401525b50505050565b6000601f19601f8301169050919050565b6000611f7082611f05565b611f7a8185611f10565b9350611f8a818560208601611f21565b611f9381611f54565b840191505092915050565b60006020820190508181036000830152611fb88184611f65565b905092915050565b6000819050919050565b611fd381611fc0565b8114611fde57600080fd5b50565b600081359050611ff081611fca565b92915050565b60006020828403121561200c5761200b611e40565b5b600061201a84828501611fe1565b91505092915050565b600073ffffffffffffffffffffffffffffffffffffffff82169050919050565b600061204e82612023565b9050919050565b61205e81612043565b82525050565b60006020820190506120796000830184612055565b92915050565b61208881612043565b811461209357600080fd5b50565b6000813590506120a58161207f565b92915050565b600080604083850312156120c2576120c1611e40565b5b60006120d085828601612096565b92505060206120e185828601611fe1565b9150509250929050565b60008060006060848603121561210457612103611e40565b5b600061211286828701612096565b935050602061212386828701612096565b925050604061213486828701611fe1565b9150509250925092565b60006020828403121561215457612153611e40565b5b600061216284828501612096565b91505092915050565b61217481611fc0565b82525050565b600060208201905061218f600083018461216b565b92915050565b61219e81611ecf565b81146121a957600080fd5b50565b6000813590506121bb81612195565b92915050565b600080604083850312156121d8576121d7611e40565b5b60006121e685828601612096565b92505060206121f7858286016121ac565b9150509250929050565b600080fd5b600080fd5b7f4e487b7100000000000000000000000000000000000000000000000000000000600052604160045260246000fd5b61224382611f54565b810181811067ffffffffffffffff821117156122625761226161220b565b5b80604052505050565b6000612275611e36565b9050612281828261223a565b919050565b600067ffffffffffffffff8211156122a1576122a061220b565b5b6122aa82611f54565b9050602081019050919050565b82818337600083830152505050565b60006122d96122d484612286565b61226b565b9050828152602081018484840111156122f5576122f4612206565b5b6123008482856122b7565b509392505050565b600082601f83011261231d5761231c612201565b5b813561232d8482602086016122c6565b91505092915050565b600080600080608085870312156123505761234f611e40565b5b600061235e87828801612096565b945050602061236f87828801612096565b935050604061238087828801611fe1565b925050606085013567ffffffffffffffff8111156123a1576123a0611e45565b5b6123ad87828801612308565b91505092959194509250565b600067ffffffffffffffff8211156123d4576123d361220b565b5b6123dd82611f54565b9050602081019050919050565b60006123fd6123f8846123b9565b61226b565b90508281526020810184848401111561241957612418612206565b5b6124248482856122b7565b509392505050565b600082601f83011261244157612440612201565b5b81356124518482602086016123ea565b91505092915050565b600060ff82169050919050565b6124708161245a565b811461247b57600080fd5b50565b60008135905061248d81612467565b92915050565b6000819050919050565b6124a681612493565b81146124b157600080fd5b50565b6000813590506124c38161249d565b92915050565b600080600080600080600060e0888a0312156124e8576124e7611e40565b5b60006124f68a828b01612096565b975050602088013567ffffffffffffffff81111561251757612516611e45565b5b6125238a828b0161242c565b96505060406125348a828b01611fe1565b95505060606125458a828b01611fe1565b94505060806125568a828b0161247e565b93505060a06125678a828b016124b4565b92505060c06125788a828b016124b4565b91505092959891949750929550565b6000806040838503121561259e5761259d611e40565b5b60006125ac85828601612096565b92505060206125bd85828601612096565b9150509250929050565b7f4e487b7100000000000000000000000000000000000000000000000000000000600052602260045260246000fd5b6000600282049050600182168061260e57607f821691505b602082108103612621576126206125c7565b5b50919050565b7f4552433732313a20617070726f76656420717565727920666f72206e6f6e657860008201527f697374656e7420746f6b656e0000000000000000000000000000000000000000602082015250565b6000612683602c83611f10565b915061268e82612627565b604082019050919050565b600060208201905081810360008301526126b281612676565b9050919050565b7f4552433732313a20617070726f76616c20746f2063757272656e74206f776e6560008201527f7200000000000000000000000000000000000000000000000000000000000000602082015250565b6000612715602183611f10565b9150612720826126b9565b604082019050919050565b6000602082019050818103600083015261274481612708565b9050919050565b7f4552433732313a20617070726f76652063616c6c6572206973206e6f74206f7760008201527f6e6572206e6f7220617070726f76656420666f7220616c6c0000000000000000602082015250565b60006127a7603883611f10565b91506127b28261274b565b604082019050919050565b600060208201905081810360008301526127d68161279a565b9050919050565b7f4552433732313a207472616e736665722063616c6c6572206973206e6f74206f60008201527f776e6572206e6f7220617070726f766564000000000000000000000000000000602082015250565b6000612839603183611f10565b9150612844826127dd565b604082019050919050565b600060208201905081810360008301526128688161282c565b9050919050565b7f4552433732313a206f776e657220717565727920666f72206e6f6e657869737460008201527f656e7420746f6b656e0000000000000000000000000000000000000000000000602082015250565b60006128cb602983611f10565b91506128d68261286f565b604082019050919050565b600060208201905081810360008301526128fa816128be565b9050919050565b7f4552433732313a2062616c616e636520717565727920666f7220746865207a6560008201527f726f206164647265737300000000000000000000000000000000000000000000602082015250565b600061295d602a83611f10565b915061296882612901565b604082019050919050565b6000602082019050818103600083015261298c81612950565b9050919050565b7f4f776e61626c653a2063616c6c6572206973206e6f7420746865206f776e6572600082015250565b60006129c9602083611f10565b91506129d482612993565b602082019050919050565b600060208201905081810360008301526129f8816129bc565b9050919050565b7f5369676e6564205472616e73616374696f6e2045787069726564000000000000600082015250565b6000612a35601a83611f10565b9150612a40826129ff565b602082019050919050565b60006020820190508181036000830152612a6481612a28565b9050919050565b612a7481612493565b82525050565b600060a082019050612a8f6000830188612a6b565b612a9c6020830187612a6b565b612aa96040830186612a6b565b612ab6606083018561216b565b612ac36080830184612055565b9695505050505050565b600060a082019050612ae26000830188612a6b565b612aef6020830187612055565b8181036040830152612b018186611f65565b9050612b10606083018561216b565b612b1d608083018461216b565b9695505050505050565b600081905092915050565b7f1901000000000000000000000000000000000000000000000000000000000000600082015250565b6000612b68600283612b27565b9150612b7382612b32565b600282019050919050565b6000819050919050565b612b99612b9482612493565b612b7e565b82525050565b6000612baa82612b5b565b9150612bb68285612b88565b602082019150612bc68284612b88565b6020820191508190509392505050565b612bdf8161245a565b82525050565b6000608082019050612bfa6000830187612a6b565b612c076020830186612bd6565b612c146040830185612a6b565b612c216060830184612a6b565b95945050505050565b600081519050612c398161207f565b92915050565b600060208284031215612c5557612c54611e40565b5b6000612c6384828501612c2a565b91505092915050565b7f496e76616c6964205369676e6174757265000000000000000000000000000000600082015250565b6000612ca2601183611f10565b9150612cad82612c6c565b602082019050919050565b60006020820190508181036000830152612cd181612c95565b9050919050565b7f45524337323155524953746f726167653a2055524920717565727920666f722060008201527f6e6f6e6578697374656e7420746f6b656e000000000000000000000000000000602082015250565b6000612d34603183611f10565b9150612d3f82612cd8565b604082019050919050565b60006020820190508181036000830152612d6381612d27565b9050919050565b6000612d7582611f05565b612d7f8185612b27565b9350612d8f818560208601611f21565b80840191505092915050565b6000612da78285612d6a565b9150612db38284612d6a565b91508190509392505050565b7f4f776e61626c653a206e6577206f776e657220697320746865207a65726f206160008201527f6464726573730000000000000000000000000000000000000000000000000000602082015250565b6000612e1b602683611f10565b9150612e2682612dbf565b604082019050919050565b60006020820190508181036000830152612e4a81612e0e565b9050919050565b7f4552433732313a206f70657261746f7220717565727920666f72206e6f6e657860008201527f697374656e7420746f6b656e0000000000000000000000000000000000000000602082015250565b6000612ead602c83611f10565b9150612eb882612e51565b604082019050919050565b60006020820190508181036000830152612edc81612ea0565b9050919050565b7f4552433732313a207472616e736665722066726f6d20696e636f72726563742060008201527f6f776e6572000000000000000000000000000000000000000000000000000000602082015250565b6000612f3f602583611f10565b9150612f4a82612ee3565b604082019050919050565b60006020820190508181036000830152612f6e81612f32565b9050919050565b7f4552433732313a207472616e7366657220746f20746865207a65726f2061646460008201527f7265737300000000000000000000000000000000000000000000000000000000602082015250565b6000612fd1602483611f10565b9150612fdc82612f75565b604082019050919050565b6000602082019050818103600083015261300081612fc4565b9050919050565b7f4e487b7100000000000000000000000000000000000000000000000000000000600052601160045260246000fd5b600061304182611fc0565b915061304c83611fc0565b92508282101561305f5761305e613007565b5b828203905092915050565b600061307582611fc0565b915061308083611fc0565b9250827fffffffffffffffffffffffffffffffffffffffffffffffffffffffffffffffff038211156130b5576130b4613007565b5b828201905092915050565b7f4552433732313a20617070726f766520746f2063616c6c657200000000000000600082015250565b60006130f6601983611f10565b9150613101826130c0565b602082019050919050565b60006020820190508181036000830152613125816130e9565b9050919050565b7f4552433732313a207472616e7366657220746f206e6f6e20455243373231526560008201527f63656976657220696d706c656d656e7465720000000000000000000000000000602082015250565b6000613188603283611f10565b91506131938261312c565b604082019050919050565b600060208201905081810360008301526131b78161317b565b9050919050565b7f4552433732313a206d696e7420746f20746865207a65726f2061646472657373600082015250565b60006131f4602083611f10565b91506131ff826131be565b602082019050919050565b60006020820190508181036000830152613223816131e7565b9050919050565b7f4552433732313a20746f6b656e20616c7265616479206d696e74656400000000600082015250565b6000613260601c83611f10565b915061326b8261322a565b602082019050919050565b6000602082019050818103600083015261328f81613253565b9050919050565b7f45524337323155524953746f726167653a2055524920736574206f66206e6f6e60008201527f6578697374656e7420746f6b656e000000000000000000000000000000000000602082015250565b60006132f2602e83611f10565b91506132fd82613296565b604082019050919050565b60006020820190508181036000830152613321816132e5565b9050919050565b7f4552433732314d657461646174613a2055524920717565727920666f72206e6f60008201527f6e6578697374656e7420746f6b656e0000000000000000000000000000000000602082015250565b6000613384602f83611f10565b915061338f82613328565b604082019050919050565b600060208201905081810360008301526133b381613377565b9050919050565b600081519050919050565b600082825260208201905092915050565b60006133e1826133ba565b6133eb81856133c5565b93506133fb818560208601611f21565b61340481611f54565b840191505092915050565b60006080820190506134246000830187612055565b6134316020830186612055565b61343e604083018561216b565b818103606083015261345081846133d6565b905095945050505050565b60008151905061346a81611e76565b92915050565b60006020828403121561348657613485611e40565b5b60006134948482850161345b565b91505092915050565b60006134a882611fc0565b91507fffffffffffffffffffffffffffffffffffffffffffffffffffffffffffffffff82036134da576134d9613007565b5b600182019050919050565b7f4e487b7100000000000000000000000000000000000000000000000000000000600052601260045260246000fd5b600061351f82611fc0565b915061352a83611fc0565b92508261353a576135396134e5565b5b828204905092915050565b600061355082611fc0565b915061355b83611fc0565b92508261356b5761356a6134e5565b5b828206905092915050565b7f4e487b7100000000000000000000000000000000000000000000000000000000600052603260045260246000fdfea2646970667358221220627c8123439b9e1483e675faa2c0cbe4e86fa37e78a50f041c6d0782c937182364736f6c634300080d0033",
  "immutableReferences": {},
  "source": "// SPDX-License-Identifier: UNLICENSED\r\npragma solidity ^0.8.0;\r\n\r\nimport \"@openzeppelin/contracts/token/ERC721/ERC721.sol\";\r\nimport \"@openzeppelin/contracts/utils/Counters.sol\";\r\nimport \"@openzeppelin/contracts/access/Ownable.sol\";\r\nimport \"@openzeppelin/contracts/token/ERC721/extensions/ERC721URIStorage.sol\";\r\n\r\ncontract MyNFT is ERC721URIStorage, Ownable {\r\n    using Counters for Counters.Counter;\r\n    Counters.Counter private _tokenIds;\r\n\r\n    constructor() ERC721(\"MyNFT\", \"NFT\") {}\r\n\r\n    function mintNFT(\r\n        address recipient,\r\n        string memory tokenURI,\r\n        uint256 tokenId,\r\n        uint256 _deadline,\r\n        uint8 v,\r\n        bytes32 r,\r\n        bytes32 s\r\n    ) public {\r\n        require(block.timestamp < _deadline, \"Signed Transaction Expired\");\r\n        address sender = msg.sender;\r\n        uint256 chainId = 1;\r\n\r\n        bytes32 eip712DomainHash = keccak256(\r\n            abi.encode(\r\n                keccak256(\r\n                    \"EIP712Domain(string name, string version, uint256 chainId, address verifyingContract)\"\r\n                ),\r\n                keccak256(bytes(\"Desi-NFT\")),\r\n                keccak256(bytes(\"0.0.1\")),\r\n                chainId,\r\n                address(this)\r\n            )\r\n        );\r\n\r\n        bytes32 hashStruct = keccak256(\r\n            abi.encode(\r\n                keccak256(\r\n                    \"createNft(address recipient, string tokenURI, uint256 tokenId, uint256 deadline)\"\r\n                ),\r\n                sender,\r\n                tokenURI,\r\n                tokenId,\r\n                _deadline\r\n            )\r\n        );\r\n\r\n        bytes32 hash = keccak256(\r\n            abi.encodePacked(\"\\x19\\x01\", eip712DomainHash, hashStruct)\r\n        );\r\n\r\n        address signer = ecrecover(hash, v, r, s);\r\n\r\n        require(signer == this.owner(), \"Invalid Signature\");\r\n        require(signer != address(0));\r\n\r\n        _mint(recipient, tokenId);\r\n        _setTokenURI(tokenId, tokenURI);\r\n    }\r\n}\r\n",
  "sourcePath": "E:\\Github\\nft-market\\truffle\\contracts\\mintNFT.sol",
  "compiler": {
    "name": "solc",
    "version": "0.8.13+commit.abaa5c0e.Emscripten.clang"
  },
  "schemaVersion": "3.4.7",
  "updatedAt": "2022-04-19T14:19:27.597Z",
  "networkType": "ethereum",
  "devdoc": {
    "kind": "dev",
    "methods": {
      "approve(address,uint256)": {
        "details": "See {IERC721-approve}."
      },
      "balanceOf(address)": {
        "details": "See {IERC721-balanceOf}."
      },
      "getApproved(uint256)": {
        "details": "See {IERC721-getApproved}."
      },
      "isApprovedForAll(address,address)": {
        "details": "See {IERC721-isApprovedForAll}."
      },
      "name()": {
        "details": "See {IERC721Metadata-name}."
      },
      "owner()": {
        "details": "Returns the address of the current owner."
      },
      "ownerOf(uint256)": {
        "details": "See {IERC721-ownerOf}."
      },
      "renounceOwnership()": {
        "details": "Leaves the contract without owner. It will not be possible to call `onlyOwner` functions anymore. Can only be called by the current owner. NOTE: Renouncing ownership will leave the contract without an owner, thereby removing any functionality that is only available to the owner."
      },
      "safeTransferFrom(address,address,uint256)": {
        "details": "See {IERC721-safeTransferFrom}."
      },
      "safeTransferFrom(address,address,uint256,bytes)": {
        "details": "See {IERC721-safeTransferFrom}."
      },
      "setApprovalForAll(address,bool)": {
        "details": "See {IERC721-setApprovalForAll}."
      },
      "supportsInterface(bytes4)": {
        "details": "See {IERC165-supportsInterface}."
      },
      "symbol()": {
        "details": "See {IERC721Metadata-symbol}."
      },
      "tokenURI(uint256)": {
        "details": "See {IERC721Metadata-tokenURI}."
      },
      "transferFrom(address,address,uint256)": {
        "details": "See {IERC721-transferFrom}."
      },
      "transferOwnership(address)": {
        "details": "Transfers ownership of the contract to a new account (`newOwner`). Can only be called by the current owner."
      }
    },
    "version": 1
  },
  "userdoc": {
    "kind": "user",
    "methods": {},
    "version": 1
  }
}